:040000000201B9320E
:01000B0032C2
:0100130032BA
:01001B0032B2
:0100230032AA
:03002B00020AC303
:0300330002034382
:01003B003292
:01004300328A
:01004B003282
:01005300327A
:01005B003272
:01006300326A
:03006B0002034647
:03007300021379FC
:03007B00020B5E17
:0300830002040B69
:03008B0002036D00
:030093000203BCA9
:03009B00020B5BFA
:0300A300021388BD
:0300AB00021389B4
:0300B30002138AAB
:0300BB0002138DA0
:0300C300020A9599
:0300CB0002137AA3
:0300D30002137B9A
:0300DB0002137D90
:0300E300020A47C7
:0300EB00021406F6
:0300F300020B5CA1
:0300FB00020B5D98
:03010300020B5F8D
:03010B00020B6084
:03011300020F5286
:03011B000213E9E3
:030123000213863E
:03012B0002138B31
:0301330002138E26
:03013B000213901C
:030143000213871D
:03014B0002138C10
:0301530002138F05
:03015B00021391FB
:030163000213E89C
:03016B0002137EFE
:03017300021380F4
:03017B00021382EA
:03018300021384E0
:03018B0002137FDD
:03019300021381D3
:03019B00021383C9
:0301A300021385BF
:0301AB0002137CC0
:0301B30002135DD7
:04021200C200C20163
:030236000201B60C
:0301B60002023909
:200239001205E7E500D2E890E668E0FF74084FF090E65CE0FF74014FF0E0FF74104FF0E0A9
:20025900FF74204FF0E0FF74084FF0D2DD90E65B7401F090E65AE0FF74014FF090E659748E
:20027900FFF090E658E0FF74044FF090E65EE0FF74104FF0D2AF90E680E0FF20E11890E6B7
:2002990080E0FF740A4FF09005DC12139290E680E0FF74F75FF01207C31000028003120FE0
:2002B9005310010280F012058790E682E0FF74C04FF090E6817401F0438701000000000040
:2002D9000000E50F702090E682E0FF30E60890E682E0FF20E0D390E682E0FF30E70890E676
:2002F90082E0FF20E1C390E682E0FF30E60890E682E0FF20E01090E682E0FF30E72690E65A
:2003190082E0FF30E11E90000512139290E680E0FF74014FF090000F12139290E680E0FF34
:2003390074FE5FF01205920202AFC2DC32C0E0C082C083C007C0D075D000D200AF9174EF81
:200359005FF59190E65D7401F0D0D0D007D083D082D0E032C021C0E0C0F0C082C083C007EC
:20037900C006C005C004C003C002C001C000C0D075D000758200121249AF9174EF5FF5914E
:2003990090E65D7410F0D0D0D000D001D002D003D004D005D006D007D083D082D0F0D0E0AC
:2003B900D02132C021C0E0C0F0C082C083C007C006C005C004C003C002C001C000C0D0752A
:2003D900D000758201121249AF9174EF5FF59190E65D7420F0D0D0D000D001D002D003D03A
:2003F90004D005D006D007D083D082D0F0D0E0D02132C0E0C082C083C007C0D075D000D293
:1904190001AF9174EF5FF59190E65D7408F0D0D0D007D083D082D0E03204
:0E021600750B01750C00750800750900C20219
:2004320075820022AF82AC14AD15AE168C828D838EF0E412135EBF0003048001E4F5822253
:20045200AF82BF0006E4B5140280047F0080027F018F822285088222AF8290E601E0FE7482
:20047200804EF000000090E6047480F000000090E6047482F000000090E6047484F000008C
:200492000090E6047486F000000090E6047488F0000000BF00028008BF0102804D02055D44
:2004B20090E610E0FE747F5EF000000090E611E0FE747F5EF000000090E612E0FE747F5E28
:2004D200F000000090E613E0FE747F5EF000000090E614E0FE747F5EF000000090E615E05E
:2004F200FE747F5EF0000000806590E610E0FE747F5EF000000090E611E0FE747F5EF0007B
:20051200000090E61274E0F000000090E6187409F000000090E6207402F000000090E6216F
:20053200E4F000000090E613E0FE747F5EF000000090E614E0FE747F5EF000000090E615F9
:20055200E0FE747F5EF000000080047582002290E602E4F000000090E603E4F000000090A4
:20057200E609E4F00000008F0890E604E4F00000007582012212065CAFB274F75FF5B2223F
:2005920043B20822750A0875240A752500752640752201E4F523F527F528F529F52AF52B61
:2005B200758250120B617EB27F3D7D088E318F32753300752F01753000758250C007C006AD
:2005D200C005120CCED005D006D00774022EFEE43FFFDDD822AF8E74F85FF58E90E60174C5
:2005F200C3F000000090E6007412F090E60B7403F000000090E6707441F075800275B20AAF
:2006120090E6727408F075B10775B697D29D12059690E68AE4F000000090E603E0FF74F0D9
:200632005F44C0F090E63074C0F090E6317401F075C800AF8E74DF5FF58E75CA0075CB0051
:20065200D2ADD2CA75820002046A90E601E0FF74804FF000000000AFB1747F5FF5B1229073
:20067200E601E0FF74804FF000000000AFB1747F5FF5B143B11090E6047480F00000009025
:20069200E618E0FF74F75FF000000090E6047482F000000090E618E0FF74084FF000000029
:2006B20090E604E4F0000000E5B120E6FB43B180D299E5B130E6FB22AE82AF83AD14ED602B
:2006D200151D8E828F83E0FCA3AE82AF833099FDC2998C9980E8744055B1FFB40100E433A0
:2006F200F5822290E601E0FF747F5FF0AF8074FD5FF580438002228582A075B4FFE514F4A0
:2007120052B1E51442B175B40022E582FFF452B185A082EF42B12275A08075B4FF53B1FEC6
:2007320043B10175B40053B1FD85A08243B10222AF8275A00075B4FF53B1FE43B10175B43B
:20075200008FA075B4FF53B1FB43B10475B40022E582FF60047F0280027F0075A00075B464
:20077200FF53B1FE43B10175B4008FA075B4FF53B1FB43B10475B4002275A00075B4FF531F
:20079200B1FE43B10175B40075A00175B4FF53B1FB43B10475B4002275A08075B4FF53B139
:2007B200FE43B10175B40053B1FD85A08243B1022222AF8290E6B8E0FE90E6BAE0FD90E669
:2007D200BBE0FC74805EFBE4BB800104FB90E6BEE0F9A3E0FA7401B5080BBF100853067F8E
:2007F200BE4002800475820022A202E433FF6009BF0103020929020A43BB00028009BB01DF
:20081200030208E6020A43E94A600475820022BC0002800EBC0102806DBC03030208B90255
:2008320008E2BD005D90E601E0FF74804FF000000000AFB1747F5FF5B143B11090E60474CF
:2008520080F000000090E618E0FF74F75FF000000090E6047482F000000090E618E0FF74AE
:20087200084FF000000090E604E4F0000000E5B120E6FB43B180D299E5B130E6FBD20202DE
:200892000A437582002275A00075B4FF53B1FE43B10175B40075A00175B4FF53B1FB43B152
:2008B2000475B400020A43ED60047F0280027F0075A00075B4FF53B1FE43B10175B4008FEB
:2008D200A075B4FF53B1FB43B10475B400020A4375820022BC023CB90105BA000280047548
:2008F20082002275A08075B4FF53B1FE43B10175B40053B1FDAFA043B10290E740EFF090F9
:20091200E68AE4F000000090E68B7401F0000000020A4375820022BB00028009BB010302AC
:200932000A3F020A43BC00028003020A3BBD0002800EBD0102806EBD0203020A18020A3761
:20095200E94A60047582002290E601E0FF74804FF000000000AFB1747F5FF5B143B1109060
:20097200E6047480F000000090E618E0FF74F75FF000000090E6047482F000000090E61882
:20099200E0FF74084FF000000090E604E4F0000000E5B120E6FB43B180D299E5B130E6FB40
:2009B200D202020A43E94A7003F58222E94A7003020A4390E68BE4F0E5BA20E0FB90E68B5E
:2009D200E0FFFD7E00C3E99DEA9E402B7D407EE78F04EC60151C8D828E83E0FBA3AD82AEC2
:2009F200833099FDC2998B9980E8744055B1FEB40100E433FE6004758200227E00E9C39FED
:200A1200F9EA9EFA80A6E94A600475820022C20290E601E0FF747F5FF0AF8074FD5FF580A3
:200A3200438002800C75820022758200227582002275820122C0E0C082C083C007C006C07C
:200A5200D075D00090E658E0FFE4F0AE9174EF5EF59190E659E0FE30E211E5AB30E2069060
:200A7200E6487402F090E6597404F090E65B7401F090E658EFF0D0D0D006D007D083D082C4
:200A9200D0E032C0E0C082C083C007C0D075D00074FFB5090280020509AF9174EF5FF59156
:200AB20090E65F7410F0D0D0D007D083D082D0E032C0E0C082C083C007C006C005C0D07561
:200AD200D000AF09750900EF24FD502DEF24FB500BE50CC50B25E0C50B33F50CE50CC50B7D
:200AF20025E0C50B33F50CC3E4950B7402950C5022750B00750C02801ABF01005038E50B36
:200B120054FE7004E50C602EE50CC313C50B13C50BF50CAE0B90E631EEF0AF0C90E630E084
:200B3200FE5306F674025F25E025E0FD420674015F90E6304EF0C2CFC2CED0D0D005D0060E
:090B5200D007D083D082D0E0323C
:203D00001201000200000040C016A9070000010203010A060002000000400100090219004A
:153D2000010104807D0904000001FF00000007058202000200EC
:203D360009021200010100807D090400000000000000040309043E0349006E00740065005F
:203D560072006E006100740069006F006E0061006C0020005400650073007400200049005C
:203D76006E0073007400720075006D0065006E007400730026035500530042002000410056
:203D96006E0061006C0079007A006500720020003100340038003000410012033000300065
:203DB60030003000300030003000300026035300740061006E0064006100720064002D0046
:143DD60043006F006D0070006C00690061006E007400000032
:010B5B003267
:010B5C003266
:010B5D003265
:010B5E003264
:010B5F003263
:010B60003262
:200B6100AF82E5272522F52CE5283523F52D903C00E4F0EF2FFF752E02903C00E0FB6004DB
:200B81007582002290E678E0FB74804BF0E0FB30E20C90000AC007121392D00780DB90E68A
:200BA10079EFF090E678E0FB20E007903C00E0FB60F1903C00E0FB60047582002290E67802
:200BC100E0FB20E2B490E678E0FB20E13790E678E0FB74404BF090E678E0FB30E607903C18
:200BE10000E0FB60F1903C00E0FB600475820022D52E047582002290000AC007121392D09C
:200C010007020B7A7A007B00C3EA952CEB952D4003020CA7C3EA9522EB95235016EA25249D
:200C2100F8EB3525F9AC26888289838CF01213EAFC801DEAC39522F8EB9523F9E82529F84B
:200C4100E9352AF9AE2B888289838EF01213EAFC90E679ECF00ABA00010B90E678E0FE2053
:200C6100E007903C00E0FE60F1903C00E0FE60047582002290E678E0FE30E203020B7A9072
:200C8100E678E0FE30E103020C0990E678E0FF74404FF090E678E0FF30E607903C00E0FF97
:200CA10060F17582002290E678E0FF74404FF090E678E0FF30E607903C00E0FF60F1903C57
:200CC10000E0FF60047582002275820122AF82903C00E4F0EF2FFF4307017401B52F08E41F
:200CE100B5300474018001E4FE903C00E0FD6004758200227C007D0090E678E0FB74804B0B
:200D0100F0E0FB30E21090000AC007C006121392D006D00780D390E679EFF090E678E0FB70
:200D210020E007903C00E0FB60F1903C00E0FB60047582002290E678E0FB20E2AC90E6782A
:200D4100E0FB20E11C90E678E0FB74404BF090E678E0FB30E607903C00E0FB60F17582000D
:200D610022EE600990E678E0FB74204BF090E679E0E4F534F53574012534F8E43535F9C38B
:200D8100E8952FE99530506A90E678E0F920E007903C00E0F960F1903C00E0F9600475827A
:200DA100002290E678E0F930E203020CEA74022534F8E43535F9E8B52F0DE9B5300990E608
:200DC10078E0F9742049F0A834A9350534E4B534020535AC34AD35E82531F8E93532F9AB0C
:200DE1003390E679E0FA888289838BF012135E020D7790E678E0FB20E007903C00E0FB6085
:200E0100F1903C00E0FB60047582002290E678E0FB30E203020CEA90E678E0FF74404FF026
:200E2100EC2531FCED3532FDAF3390E679E0FE8C828D838FF012135E90E678E0FF30E60769
:200E4100903C00E0FF60F1903C00E0FF6004758200227582012285823DE4F541F542AB36DD
:200E6100AC37C3E5419538E54295394003020EE97A0090E678E0FF30E4067A018C078F3E6B
:200E81008A070AEF243EF98B06A7068A070AEF243EF9AE41AF420541E4B541020542EE25ED
:200EA1003AFEEF353BFFAD3C8E828F838DF01213EAF78A2275230075243E7525007526407D
:200EC100E4F527F528F529F52AF52B853D82C004C003120B61E582D003D0047003F5822234
:200EE1000BBB00010C020E6375820122AF827E0090E678E0FD30E4067E01AD448D4A8E0523
:200F01000EED244AF9AC43A7048E2275230075244A752500752640E4F527F528F529F52ADA
:200F2100F52B8F82C007120B61E582D0077003F5822285452F854630854731854832854932
:110F4100338F82120CCEE5827003F5822275820122E2
:010F5200326C
:0601E800E478FFF6D8FDEB
:12022400750E00750F0075103675113D75121C75133DDB
:200F530090E6B9E0FF24F45003021059EF240A83F582EF241083F583E473859B59B1595932
:200F7300C759D7EE063A0F0F100F10100F100F0F10101210D3E582600302106F90E6A0E049
:200F9300FF74014FF002106F12115CE582600302106F90E6A0E0FF74014FF002106F1211F3
:200FB300C8E582600302106F90E6A0E0FF74014FF002106F120432E582600302106F12122A
:200FD3007402106F120466AF8290E740EFF090E68AE4F090E68B04F002106F90E6BAE0F577
:200FF3008212046AE582707490E6A0E0FF74014FF0806990E6BCE0FF75140D751500751643
:20101300408F82120436E582700B90E6A0E0FF74014FF0804790E740E50DF090E68AE4F061
:2010330090E68B04F0803590E6BCE0FF90E6BAE0F5148F82120452E582702190E6A0E0FF63
:2010530074014FF0801690E6B9E0F5821207C4E582700990E6A0E0FF74014FF090E6A0E051
:20107300FF74804FF022AF828F0653067FEE24F750030210CFEE240A83F582EE240D83F581
:2010930083E473A8ACBFCFC3CFC7CFCB10101010101010101090E6A022EF30E7067EA27F1B
:2010B300E680047EA17FE68E828F832290E6A32290E6A42290E6A52290E6A6229000002247
:2010D30090E6B8E0FFBF8002801FBF81028005BF826F803490E740E4F090E741F090E68AB2
:2010F300F090E68B7402F0805CE50F25E0FFE50E420790E740EFF090E741E4F090E68AF064
:2011130090E68B7402F0803D90E6BCE0F582121079AE82AF83EE4F7003F582228E828F83A7
:20113300E0FE30E0047F0180027F0090E740EFF090E741E4F090E68AF090E68B7402F08030
:2011530004758200227582012290E6B8E0FF6005BF0255801190E6BAE0FFBF0105750F00D4
:20117300804F7582002290E6BAE0703890E6BCE0F582121079AE82AF83E0FD5305FE8E82F3
:201193008F83EDF090E6BCE0FF53070F90E6BCE05480C423541FFE90E6832FF0E0FF74200A
:2011B3004FF0800D7582002290E6B9E0F5820207C47582012290E6B8E0FF6005BF026A80AD
:2011D3001B90E6BAE0FFBF0202806790E6BAE0FFBF0105750F01805A7582002290E6BAE0CC
:2011F300704390E6BCE0F582121079AE82AF83EE4F7003F582228E828F83E0FD4305018E84
:20121300828F83EDF090E6BCE0FF53070F90E6BCE05480C423541FFE90E6832FF0E0FF7427
:20123300204FF0800D7582002290E6B9E0F5820207C475820122AF82D20310AF02C203EFAE
:20125300600E75101C75113D75123675133D800C75103675113D75121C75133DA20392AFCF
:201273002290E6BBE0FFBF01028019BF02028029BF03028033BF060302132FBF0703021301
:20129300440213537E007F3D8F0690E6B3EEF07E007F3D90E6B4EEF022AF1190E6B3EFF08D
:2012B300AE1090E6B4EEF0227D487E3D7F8090E6BAE0F5147B008B020BEAB5140280428D84
:2012D300008E018F028D828E838FF01213EA28F8E439F9880589068A0774012DF9E43EFA93
:2012F3008F0489828A838CF01213EAF9B9030280067D007E007F00ED4E6006C3E5149B50A6
:20131300B5ED4E600D8E0790E6B3EFF090E6B4EDF02290E6A0E0FF74014FF0227E127F3D80
:201333008F0690E6B3EEF07E127F3D90E6B4EEF022AF1390E6B3EFF0AE1290E6B4EEF022D4
:0A13530090E6A0E0FF74014FF022C5
:2001C6007900E94400601B7A0090140B780175923CE493F2A308B800020592D9F4DAF275A0
:0201E60092FF86
:01135D00325D
:1B135E0020F71130F6138883A88220F509F6A8837583002280FEF280F5F0228E
:011379003241
:01137A003240
:01137B00323F
:01137C00323E
:01137D00323D
:03004300023F0079
:203F00000203460002137900020B5E0002040B0002036D000203BC00020B5B000213870015
:203F2000021388000213890002138A0002138D00020A950002137A0002137B0002137D00B3
:203F4000020A47000213870002140600020B5C00020B5D00020B5F00020B6000020F520047
:203F60000213E9000213870002138700021387000213860002138B0002138E0002139000EC
:203F800002138C0002138F00021391000213E80002137E00021380000213820002138400E1
:183FA00002137F0002138100021383000213850002137C0002135D00AA
:01137E00323C
:01137F00323B
:2001EE007800E84400600A790075923CE4F309D8FC7801E84400600C7901903C00E4F0A3A5
:04020E00D8FCD9FA45
:01138000323A
:011381003239
:011382003238
:011383003237
:011384003236
:011385003235
:011386003234
:011387003233
:011388003232
:011389003231
:01138A003230
:01138B00322F
:01138C00322E
:01138D00322D
:01138E00322C
:01138F00322B
:01139000322A
:011391003229
:20139200AE82AF8390E600E05418C423541FFDB40100E433FD60067CB17D00801C90E600D5
:2013B200E05418C423541FFBBB01067A617B0180047AC27B028A048B058C148D1515147427
:1613D200FFB514021515E514451570F11EBEFF011FEE4F70E422AF
:0113E80032D2
:0113E90032D1
:0D01B90075814B121407E58260030201B648
:1C13EA0020F71430F6148883A88220F507E6A88375830022E280F7E49322E02212
:0114060032B3
:0414070075820022C8
:00000001FF
