:040000000201B9320E
:01000B0032C2
:0100130032BA
:01001B0032B2
:0100230032AA
:03002B00020A6462
:0300330002034382
:01003B003292
:01004300328A
:01004B003282
:01005300327A
:01005B003272
:01006300326A
:03006B0002034647
:03007300020F2950
:03007B00020AFF77
:0300830002040B69
:03008B0002036D00
:030093000203BCA9
:03009B00020AFC5A
:0300A300020F3811
:0300AB00020F3908
:0300B300020F3AFF
:0300BB00020F3DF4
:0300C300020A36F8
:0300CB00020F2AF7
:0300D300020F2BEE
:0300DB00020F2DE4
:0300E3000209E827
:0300EB00020FB64B
:0300F300020AFD01
:0300FB00020AFEF8
:03010300020B00EC
:03010B00020B01E3
:03011300020B02DA
:03011B00020F9937
:03012300020F3692
:03012B00020F3B85
:03013300020F3E7A
:03013B00020F4070
:03014300020F3771
:03014B00020F3C64
:03015300020F3F59
:03015B00020F414F
:03016300020F98F0
:03016B00020F2E52
:03017300020F3048
:03017B00020F323E
:03018300020F3434
:03018B00020F2F31
:03019300020F3127
:03019B00020F331D
:0301A300020F3513
:0301AB00020F2C14
:0301B300020F0D2B
:04021200C200C20163
:030236000201B60C
:0301B60002023909
:20023900120596E500D2E890E668E0FF74084FF090E65CE0FF74014FF0E0FF74104FF0E0FA
:20025900FF74204FF0E0FF74084FF0D2DD90E65B7401F090E65AE0FF74014FF090E659748E
:20027900FFF090E658E0FF74044FF090E65EE0FF74104FF0D2AF90E680E0FF20E11890E6B7
:2002990080E0FF740A4FF09005DC120F4290E680E0FF74F75FF01207641000028003120B97
:2002B9000310010280F012058790E682E0FF74C04FF090E6817401F0438701000000000090
:2002D9000000E50E702090E682E0FF30E60890E682E0FF20E0D390E682E0FF30E70890E677
:2002F90082E0FF20E1C390E682E0FF30E60890E682E0FF20E01090E682E0FF30E72690E65A
:2003190082E0FF30E11E900005120F4290E680E0FF74014FF090000F120F4290E680E0FFDC
:2003390074FE5FF01205920202AFC2DC32C0E0C082C083C007C0D075D000D200AF9174EF81
:200359005FF59190E65D7401F0D0D0D007D083D082D0E032C021C0E0C0F0C082C083C007EC
:20037900C006C005C004C003C002C001C000C0D075D000758200120DF9AF9174EF5FF591A3
:2003990090E65D7410F0D0D0D000D001D002D003D004D005D006D007D083D082D0F0D0E0AC
:2003B900D02132C021C0E0C0F0C082C083C007C006C005C004C003C002C001C000C0D0752A
:2003D900D000758201120DF9AF9174EF5FF59190E65D7420F0D0D0D000D001D002D003D08F
:2003F90004D005D006D007D083D082D0F0D0E0D02132C0E0C082C083C007C0D075D000D293
:1904190001AF9174EF5FF59190E65D7408F0D0D0D007D083D082D0E03204
:0E021600750A01750B00750800750900C2021B
:2004320075820022AF82AC13AD14AE158C828D838EF0E4120F0EBF0003048001E4F58222AA
:20045200AF82BF0006E4B5130280047F0080027F018F822285088222AF8290E601E0FE7483
:20047200804EF000000090E6047480F000000090E6047482F000000090E6047484F000008C
:200492000090E6047486F000000090E6047488F0000000BF00028008BF0102804D02055D44
:2004B20090E610E0FE747F5EF000000090E611E0FE747F5EF000000090E612E0FE747F5E28
:2004D200F000000090E613E0FE747F5EF000000090E614E0FE747F5EF000000090E615E05E
:2004F200FE747F5EF0000000806590E610E0FE747F5EF000000090E611E0FE747F5EF0007B
:20051200000090E61274E0F000000090E6187409F000000090E6207402F000000090E6216F
:20053200E4F000000090E613E0FE747F5EF000000090E614E0FE747F5EF000000090E615F9
:20055200E0FE747F5EF000000080047582002290E602E4F000000090E603E4F000000090A4
:20057200E609E4F00000008F0890E604E4F0000000758201221205FDAFB274F75FF5B2229F
:2005920043B20822AF8E74F85FF58E90E60174C3F000000090E6007412F090E60B7403F02D
:2005B20000000090E6707441F075800275B20A90E6727408F075B10775B697D29D90E68AC4
:2005D200E4F000000090E63074C0F090E6317401F075C800AF8E74DF5FF58E75CA0075CB31
:2005F20000D2ADD2CA75820002046A90E601E0FF74804FF000000000AFB1747F5FF5B12264
:2006120090E601E0FF74804FF000000000AFB1747F5FF5B143B11090E6047480F000000085
:2006320090E618E0FF74F75FF000000090E6047482F000000090E618E0FF74084FF00000F9
:200652000090E604E4F0000000E5B120E6FB43B180D299E5B130E6FB22AE82AF83AD13EDEC
:2006720060151D8E828F83E0FCA3AE82AF833099FDC2998C9980E8744055B1FFB40100E4D3
:2006920033F5822290E601E0FF747F5FF0AF8074FD5FF580438002228582A075B4FFE513C2
:2006B200F452B1E51342B175B40022E582FFF452B185A082EF42B12275A08075B4FF53B132
:2006D200FE43B10175B40053B1FD85A08243B10222AF8275A00075B4FF53B1FE43B1017552
:2006F200B4008FA075B4FF53B1FB43B10475B40022E582FF60047F0280027F0075A00075C5
:20071200B4FF53B1FE43B10175B4008FA075B4FF53B1FB43B10475B4002275A00075B4FF1E
:2007320053B1FE43B10175B40075A00175B4FF53B1FB43B10475B4002275A08075B4FF53F7
:20075200B1FE43B10175B40053B1FD85A08243B1022222AF8290E6B8E0FE90E6BAE0FD90FE
:20077200E6BBE0FC74805EFBE4BB800104FB90E6BEE0F9A3E0FA7401B5080BBF1008530687
:200792007FBE4002800475820022A202E433FF6009BF01030208CA0209E4BB00028009BB81
:2007B20001030208870209E4E94A600475820022BC0002800EBC0102806DBC030302085AD5
:2007D200020883BD005D90E601E0FF74804FF000000000AFB1747F5FF5B143B11090E60401
:2007F2007480F000000090E618E0FF74F75FF000000090E6047482F000000090E618E0FF0F
:2008120074084FF000000090E604E4F0000000E5B120E6FB43B180D299E5B130E6FBD202CC
:200832000209E47582002275A00075B4FF53B1FE43B10175B40075A00175B4FF53B1FB43C1
:20085200B10475B4000209E4ED60047F0280027F0075A00075B4FF53B1FE43B10175B40089
:200872008FA075B4FF53B1FB43B10475B4000209E475820022BC023CB90105BA00028004EE
:200892007582002275A08075B4FF53B1FE43B10175B40053B1FDAFA043B10290E740EFF074
:2008B20090E68AE4F000000090E68B7401F00000000209E475820022BB00028009BB0103DF
:2008D2000209E00209E4BC000280030209DCBD0002800EBD0102806EBD02030209B9020978
:2008F200D8E94A60047582002290E601E0FF74804FF000000000AFB1747F5FF5B143B11079
:2009120090E6047480F000000090E618E0FF74F75FF000000090E6047482F000000090E66A
:2009320018E0FF74084FF000000090E604E4F0000000E5B120E6FB43B180D299E5B130E683
:20095200FBD2020209E4E94A7003F58222E94A70030209E490E68BE4F0E5BA20E0FB90E60E
:200972008BE0FFFD7E00C3E99DEA9E402B7D407EE78F04EC60151C8D828E83E0FBA3AD8245
:20099200AE833099FDC2998B9980E8744055B1FEB40100E433FE6004758200227E00E9C33E
:2009B2009FF9EA9EFA80A6E94A600475820022C20290E601E0FF747F5FF0AF8074FD5FF5E5
:2009D20080438002800C75820022758200227582002275820122C0E0C082C083C007C0061D
:2009F200C0D075D00090E658E0FFE4F0AE9174EF5EF59190E659E0FE30E211E5AB30E20691
:200A120090E6487402F090E6597404F090E65B7401F090E658EFF0D0D0D006D007D083D016
:200A320082D0E032C0E0C082C083C007C0D075D00074FFB5090280020509AF9174EF5FF5C5
:200A52009190E65F7410F0D0D0D007D083D082D0E032C0E0C082C083C007C006C005C0D0A5
:200A720075D000AF09750900EF24FD502DEF24FB500BE50BC50A25E0C50A33F50BE50BC578
:200A92000A25E0C50A33F50BC3E4950A7402950B5022750A00750B02801ABF01005038E59D
:200AB2000A54FE7004E50B602EE50BC313C50A13C50AF50BAE0A90E631EEF0AF0B90E630C2
:200AD200E0FE5306F674025F25E025E0FD420674015F90E6304EF0C2CFC2CED0D0D005D095
:0A0AF20006D007D083D082D0E03296
:203D00001201000200000040C016A9070000010200010A060002000000400100090219004D
:153D2000010103807D0904000001FF00000007058202000200ED
:203D360009021200010100807D090400000000000000040309043E0349006E00740065005F
:203D560072006E006100740069006F006E0061006C0020005400650073007400200049005C
:203D76006E0073007400720075006D0065006E007400730026035500530042002000410056
:203D96006E0061006C0079007A0065007200200031003400380030004100260353007400EA
:203DB60061006E0064006100720064002D0043006F006D0070006C00690061006E007400AF
:023DD6000000EB
:010AFC0032C7
:010AFD0032C6
:010AFE0032C5
:010AFF0032C4
:010B000032C2
:010B010032C1
:010B020032C0
:0601E800E478FFF6D8FDEB
:12022400750D00750E00750F3675103D75111C75123DE1
:200B030090E6B9E0FF24F45003020C09EF240A83F582EF241083F583E473354B09610909BA
:200B23007709879EB6EA0B0B0C0B0C0C0B0C0B0B0B0B120C83E5826003020C1F90E6A0E057
:200B4300FF74014FF0020C1F120D0CE5826003020C1F90E6A0E0FF74014FF0020C1F120D9B
:200B630078E5826003020C1F90E6A0E0FF74014FF0020C1F120432E5826003020C1F120ECE
:200B830024020C1F120466AF8290E740EFF090E68AE4F090E68B04F0020C1F90E6BAE0F5C3
:200BA3008212046AE582707490E6A0E0FF74014FF0806990E6BCE0FF75130C75140075159B
:200BC300408F82120436E582700B90E6A0E0FF74014FF0804790E740E50CF090E68AE4F0B7
:200BE30090E68B04F0803590E6BCE0FF90E6BAE0F5138F82120452E582702190E6A0E0FFB9
:200C030074014FF0801690E6B9E0F582120765E582700990E6A0E0FF74014FF090E6A0E004
:200C2300FF74804FF022AF828F0653067FEE24F75003020C7FEE240A83F582EE240D83F529
:200C430083E473585C6F7F737F777F7B0C0C0C0C0C0C0C0C0C90E6A022EF30E7067EA27F63
:200C6300E680047EA17FE68E828F832290E6A32290E6A42290E6A52290E6A622900000229B
:200C830090E6B8E0FFBF8002801FBF81028005BF826F803490E740E4F090E741F090E68A06
:200CA300F090E68B7402F0805CE50E25E0FFE50D420790E740EFF090E741E4F090E68AF0BA
:200CC30090E68B7402F0803D90E6BCE0F582120C29AE82AF83EE4F7003F582228E828F8350
:200CE300E0FE30E0047F0180027F0090E740EFF090E741E4F090E68AF090E68B7402F08085
:200D030004758200227582012290E6B8E0FF6005BF0255801190E6BAE0FFBF0105750E0029
:200D2300804F7582002290E6BAE0703890E6BCE0F582120C29AE82AF83E0FD5305FE8E829B
:200D43008F83EDF090E6BCE0FF53070F90E6BCE05480C423541FFE90E6832FF0E0FF74205E
:200D63004FF0800D7582002290E6B9E0F5820207657582012290E6B8E0FF6005BF026A8060
:200D83001B90E6BAE0FFBF0202806790E6BAE0FFBF0105750E01805A7582002290E6BAE021
:200DA300704390E6BCE0F582120C29AE82AF83EE4F7003F582228E828F83E0FD4305018E2C
:200DC300828F83EDF090E6BCE0FF53070F90E6BCE05480C423541FFE90E6832FF0E0FF747C
:200DE300204FF0800D7582002290E6B9E0F58202076575820122AF82D20310AF02C203EF62
:200E0300600E750F1C75103D75113675123D800C750F3675103D75111C75123DA20392AF2B
:200E23002290E6BBE0FFBF01028019BF02028029BF03028033BF0603020EDFBF0703020EAF
:200E4300F4020F037E007F3D8F0690E6B3EEF07E007F3D90E6B4EEF022AF1090E6B3EFF086
:200E6300AE0F90E6B4EEF0227D487E3D7F8090E6BAE0F5137B008B020BEAB5130280428DDB
:200E8300008E018F028D828E838FF0120F9A28F8E439F9880589068A0774012DF9E43EFA3B
:200EA3008F0489828A838CF0120F9AF9B9030280067D007E007F00ED4E6006C3E5139B504F
:200EC300B5ED4E600D8E0790E6B3EFF090E6B4EDF02290E6A0E0FF74014FF0227E127F3DD5
:200EE3008F0690E6B3EEF07E127F3D90E6B4EEF022AF1290E6B3EFF0AE1190E6B4EEF0222B
:0A0F030090E6A0E0FF74014FF02219
:2001C6007900E94400601B7A00900FBB780075923CE493F2A308B800020592D9F4DAF275F6
:0201E60092FF86
:010F0D0032B1
:1B0F0E0020F71130F6138883A88220F509F6A8837583002280FEF280F5F022E2
:010F29003295
:010F2A003294
:010F2B003293
:010F2C003292
:010F2D003291
:03004300023F0079
:203F000002034600020F2900020AFF0002040B0002036D000203BC00020AFC00020F37007D
:203F2000020F3800020F3900020F3A00020F3D00020A3600020F2A00020F2B00020F2D005E
:203F40000209E800020F3700020FB600020AFD00020AFE00020B0000020B0100020B020022
:203F6000020F9900020F3700020F3700020F3700020F3600020F3B00020F3E00020F40008C
:203F8000020F3C00020F3F00020F4100020F9800020F2E00020F3000020F3200020F340081
:183FA000020F2F00020F3100020F3300020F3500020F2C00020F0D00A2
:010F2E003290
:010F2F00328F
:2001EE007800E84400600A790075923CE4F309D8FC7800E84400600C7900903C00E4F0A3A7
:04020E00D8FCD9FA45
:010F3000328E
:010F3100328D
:010F3200328C
:010F3300328B
:010F3400328A
:010F35003289
:010F36003288
:010F37003287
:010F38003286
:010F39003285
:010F3A003284
:010F3B003283
:010F3C003282
:010F3D003281
:010F3E003280
:010F3F00327F
:010F4000327E
:010F4100327D
:200F4200AE82AF8390E600E05418C423541FFDB40100E433FD60067CB17D00801C90E60029
:200F6200E05418C423541FFBBB01067A617B0180047AC27B028A048B058C138D141513747E
:160F8200FFB513021514E513451470F11EBEFF011FEE4F70E42207
:010F98003226
:010F99003225
:0D01B900758121120FB7E58260030201B6C7
:1C0F9A0020F71430F6148883A88220F507E6A88375830022E280F7E49322E02266
:010FB6003208
:040FB700758200221D
:00000001FF
