:040000000201B9320E
:01000B0032C2
:0100130032BA
:01001B0032B2
:0100230032AA
:03002B00020AB80E
:0300330002034382
:01003B003292
:01004300328A
:01004B003282
:01005300327A
:01005B003272
:01006300326A
:03006B0002034647
:0300730002136E07
:03007B00020B5322
:0300830002040B69
:03008B0002036D00
:030093000203BCA9
:03009B00020B5005
:0300A30002137DC8
:0300AB0002137EBF
:0300B30002137FB6
:0300BB00021382AB
:0300C300020A8AA4
:0300CB0002136FAE
:0300D300021370A5
:0300DB000213729B
:0300E300020A3CD2
:0300EB000213FB02
:0300F300020B51AC
:0300FB00020B52A3
:03010300020B5498
:03010B00020B558F
:03011300020F4791
:03011B000213DEEE
:0301230002137B49
:03012B000213803C
:0301330002138331
:03013B0002138527
:0301430002137C28
:03014B000213811B
:0301530002138410
:03015B0002138606
:030163000213DDA7
:03016B0002137309
:03017300021375FF
:03017B00021377F5
:03018300021379EB
:03018B00021374E8
:03019300021376DE
:03019B00021378D4
:0301A30002137ACA
:0301AB00021371CB
:0301B300021352E2
:04021200C200C20163
:030236000201B60C
:0301B60002023909
:200239001205E7E500D2E890E668E0FF74084FF090E65CE0FF74014FF0E0FF74104FF0E0A9
:20025900FF74204FF0E0FF74084FF0D2DD90E65B7401F090E65AE0FF74014FF090E659748E
:20027900FFF090E658E0FF74044FF090E65EE0FF74104FF0D2AF90E680E0FF20E11890E6B7
:2002990080E0FF740A4FF09005DC12138790E680E0FF74F75FF01207B81000028003120FF6
:2002B9004810010280F012058790E682E0FF74C04FF090E6817401F043870100000000004B
:2002D9000000E50F702090E682E0FF30E60890E682E0FF20E0D390E682E0FF30E70890E676
:2002F90082E0FF20E1C390E682E0FF30E60890E682E0FF20E01090E682E0FF30E72690E65A
:2003190082E0FF30E11E90000512138790E680E0FF74014FF090000F12138790E680E0FF4A
:2003390074FE5FF01205920202AFC2DC32C0E0C082C083C007C0D075D000D200AF9174EF81
:200359005FF59190E65D7401F0D0D0D007D083D082D0E032C021C0E0C0F0C082C083C007EC
:20037900C006C005C004C003C002C001C000C0D075D00075820012123EAF9174EF5FF59159
:2003990090E65D7410F0D0D0D000D001D002D003D004D005D006D007D083D082D0F0D0E0AC
:2003B900D02132C021C0E0C0F0C082C083C007C006C005C004C003C002C001C000C0D0752A
:2003D900D00075820112123EAF9174EF5FF59190E65D7420F0D0D0D000D001D002D003D045
:2003F90004D005D006D007D083D082D0F0D0E0D02132C0E0C082C083C007C0D075D000D293
:1904190001AF9174EF5FF59190E65D7408F0D0D0D007D083D082D0E03204
:0E021600750B01750C00750800750900C20219
:2004320075820022AF82AC14AD15AE168C828D838EF0E4121353BF0003048001E4F582225E
:20045200AF82BF0006E4B5140280047F0080027F018F822285088222AF8290E601E0FE7482
:20047200804EF000000090E6047480F000000090E6047482F000000090E6047484F000008C
:200492000090E6047486F000000090E6047488F0000000BF00028008BF0102804D02055D44
:2004B20090E610E0FE747F5EF000000090E611E0FE747F5EF000000090E612E0FE747F5E28
:2004D200F000000090E613E0FE747F5EF000000090E614E0FE747F5EF000000090E615E05E
:2004F200FE747F5EF0000000806590E610E0FE747F5EF000000090E611E0FE747F5EF0007B
:20051200000090E61274E0F000000090E6187409F000000090E6207402F000000090E6216F
:20053200E4F000000090E613E0FE747F5EF000000090E614E0FE747F5EF000000090E615F9
:20055200E0FE747F5EF000000080047582002290E602E4F000000090E603E4F000000090A4
:20057200E609E4F00000008F0890E604E4F000000075820122120651AFB274F75FF5B2224A
:2005920043B20822750A0875240A752500752640752201E4F523F527F528F529F52AF52B61
:2005B200758250120B567EB27F3D7D088E318F32753300752F01753000758250C007C006B8
:2005D200C005120CC3D005D006D00774022EFEE43FFFDDD822AF8E74F85FF58E90E60174D0
:2005F200C3F000000090E6007412F090E60B7403F000000090E6707441F075800275B20AAF
:2006120090E6727408F075B10775B697D29D12059690E68AE4F000000090E63074C0F0903B
:20063200E6317401F075C800AF8E74DF5FF58E75CA0075CB00D2ADD2CA75820002046A90EC
:20065200E601E0FF74804FF000000000AFB1747F5FF5B12290E601E0FF74804FF00000008C
:2006720000AFB1747F5FF5B143B11090E6047480F000000090E618E0FF74F75FF000000087
:2006920090E6047482F000000090E618E0FF74084FF000000090E604E4F0000000E5B120BC
:2006B200E6FB43B180D299E5B130E6FB22AE82AF83AD14ED60151D8E828F83E0FCA3AE822C
:2006D200AF833099FDC2998C9980E8744055B1FFB40100E433F5822290E601E0FF747F5F62
:2006F200F0AF8074FD5FF580438002228582A075B4FFE514F452B1E51442B175B40022E5C2
:2007120082FFF452B185A082EF42B12275A08075B4FF53B1FE43B10175B40053B1FD85A0A1
:200732008243B10222AF8275A00075B4FF53B1FE43B10175B4008FA075B4FF53B1FB43B135
:200752000475B40022E582FF60047F0280027F0075A00075B4FF53B1FE43B10175B4008F00
:20077200A075B4FF53B1FB43B10475B4002275A00075B4FF53B1FE43B10175B40075A001EA
:2007920075B4FF53B1FB43B10475B4002275A08075B4FF53B1FE43B10175B40053B1FD857A
:2007B200A08243B1022222AF8290E6B8E0FE90E6BAE0FD90E6BBE0FC74805EFBE4BB800107
:2007D20004FB90E6BEE0F9A3E0FA7401B5080BBF100853067FBE4002800475820022A20251
:2007F200E433FF6009BF010302091E020A38BB00028009BB01030208DB020A38E94A600473
:2008120075820022BC0002800EBC0102806DBC03030208AE0208D7BD005D90E601E0FF7476
:20083200804FF000000000AFB1747F5FF5B143B11090E6047480F000000090E618E0FF744C
:20085200F75FF000000090E6047482F000000090E618E0FF74084FF000000090E604E4F06A
:20087200000000E5B120E6FB43B180D299E5B130E6FBD202020A387582002275A00075B4DA
:20089200FF53B1FE43B10175B40075A00175B4FF53B1FB43B10475B400020A38ED60047FB5
:2008B2000280027F0075A00075B4FF53B1FE43B10175B4008FA075B4FF53B1FB43B1047503
:2008D200B400020A3875820022BC023CB90105BA000280047582002275A08075B4FF53B122
:2008F200FE43B10175B40053B1FDAFA043B10290E740EFF090E68AE4F000000090E68B74A5
:2009120001F0000000020A3875820022BB00028009BB0103020A34020A38BC0002800302AB
:200932000A30BD0002800EBD0102806EBD0203020A0D020A2CE94A60047582002290E60136
:20095200E0FF74804FF000000000AFB1747F5FF5B143B11090E6047480F000000090E6182B
:20097200E0FF74F75FF000000090E6047482F000000090E618E0FF74084FF000000090E6CE
:2009920004E4F0000000E5B120E6FB43B180D299E5B130E6FBD202020A38E94A7003F5821B
:2009B20022E94A7003020A3890E68BE4F0E5BA20E0FB90E68BE0FFFD7E00C3E99DEA9E403E
:2009D2002B7D407EE78F04EC60151C8D828E83E0FBA3AD82AE833099FDC2998B9980E87489
:2009F2004055B1FEB40100E433FE6004758200227E00E9C39FF9EA9EFA80A6E94A600475E4
:200A1200820022C20290E601E0FF747F5FF0AF8074FD5FF580438002800C758200227582EF
:200A320000227582002275820122C0E0C082C083C007C006C0D075D00090E658E0FFE4F047
:200A5200AE9174EF5EF59190E659E0FE30E211E5AB30E20690E6487402F090E6597404F02B
:200A720090E65B7401F090E658EFF0D0D0D006D007D083D082D0E032C0E0C082C083C007C1
:200A9200C0D075D00074FFB5090280020509AF9174EF5FF59190E65F7410F0D0D0D007D094
:200AB20083D082D0E032C0E0C082C083C007C006C005C0D075D000AF09750900EF24FD508B
:200AD2002DEF24FB500BE50CC50B25E0C50B33F50CE50CC50B25E0C50B33F50CC3E4950B93
:200AF2007402950C5022750B00750C02801ABF01005038E50B54FE7004E50C602EE50CC38D
:200B120013C50B13C50BF50CAE0B90E631EEF0AF0C90E630E0FE5306F674025F25E025E051
:1E0B3200FD420674015F90E6304EF0C2CFC2CED0D0D005D006D007D083D082D0E032DE
:203D00001201000200000040C016A9070000010203010A060002000000400100090219004A
:153D2000010104807D0904000001FF00000007058202000200EC
:203D360009021200010100807D090400000000000000040309043E0349006E00740065005F
:203D560072006E006100740069006F006E0061006C0020005400650073007400200049005C
:203D76006E0073007400720075006D0065006E007400730026035500530042002000410056
:203D96006E0061006C0079007A006500720020003100340038003000410012033000300065
:203DB60030003000300030003000300026035300740061006E0064006100720064002D0046
:143DD60043006F006D0070006C00690061006E007400000032
:010B50003272
:010B51003271
:010B52003270
:010B5300326F
:010B5400326E
:010B5500326D
:200B5600AF82E5272522F52CE5283523F52D903C00E4F0EF2FFF752E02903C00E0FB6004E6
:200B76007582002290E678E0FB74804BF0E0FB30E20C90000AC007121387D00780DB90E6A0
:200B960079EFF090E678E0FB20E007903C00E0FB60F1903C00E0FB60047582002290E6780D
:200BB600E0FB20E2B490E678E0FB20E13790E678E0FB74404BF090E678E0FB30E607903C23
:200BD60000E0FB60F1903C00E0FB600475820022D52E047582002290000AC007121387D0B2
:200BF60007020B6F7A007B00C3EA952CEB952D4003020C9CC3EA9522EB95235016EA2524BF
:200C1600F8EB3525F9AC26888289838CF01213DFFC801DEAC39522F8EB9523F9E82529F861
:200C3600E9352AF9AE2B888289838EF01213DFFC90E679ECF00ABA00010B90E678E0FE2069
:200C5600E007903C00E0FE60F1903C00E0FE60047582002290E678E0FE30E203020B6F9088
:200C7600E678E0FE30E103020BFE90E678E0FF74404FF090E678E0FF30E607903C00E0FFAE
:200C960060F17582002290E678E0FF74404FF090E678E0FF30E607903C00E0FF60F1903C62
:200CB60000E0FF60047582002275820122AF82903C00E4F0EF2FFF4307017401B52F08E42A
:200CD600B5300474018001E4FE903C00E0FD6004758200227C007D0090E678E0FB74804B16
:200CF600F0E0FB30E21090000AC007C006121387D006D00780D390E679EFF090E678E0FB87
:200D160020E007903C00E0FB60F1903C00E0FB60047582002290E678E0FB20E2AC90E67835
:200D3600E0FB20E11C90E678E0FB74404BF090E678E0FB30E607903C00E0FB60F175820018
:200D560022EE600990E678E0FB74204BF090E679E0E4F534F53574012534F8E43535F9C396
:200D7600E8952FE99530506A90E678E0F920E007903C00E0F960F1903C00E0F96004758285
:200D9600002290E678E0F930E203020CDF74022534F8E43535F9E8B52F0DE9B5300990E61E
:200DB60078E0F9742049F0A834A9350534E4B534020535AC34AD35E82531F8E93532F9AB17
:200DD6003390E679E0FA888289838BF0121353020D6C90E678E0FB20E007903C00E0FB60A6
:200DF600F1903C00E0FB60047582002290E678E0FB30E203020CDF90E678E0FF74404FF03D
:200E1600EC2531FCED3532FDAF3390E679E0FE8C828D838FF012135390E678E0FF30E6077F
:200E3600903C00E0FF60F1903C00E0FF6004758200227582012285823DE4F541F542AB36E8
:200E5600AC37C3E5419538E54295394003020EDE7A0090E678E0FF30E4067A018C078F3E81
:200E76008A070AEF243EF98B06A7068A070AEF243EF9AE41AF420541E4B541020542EE25F8
:200E96003AFEEF353BFFAD3C8E828F838DF01213DFF78A2275230075243E75250075264093
:200EB600E4F527F528F529F52AF52B853D82C004C003120B56E582D003D0047003F582224A
:200ED6000BBB00010C020E5875820122AF827E0090E678E0FD30E4067E01AD448D4A8E0539
:200EF6000EED244AF9AC43A7048E2275230075244A752500752640E4F527F528F529F52AE6
:200F1600F52B8F82C007120B56E582D0077003F5822285452F854630854731854832854948
:110F3600338F82120CC3E5827003F5822275820122F8
:010F47003277
:0601E800E478FFF6D8FDEB
:12022400750E00750F0075103675113D75121C75133DDB
:200F480090E6B9E0FF24F4500302104EEF240A83F582EF241083F583E4737A904EA64E4E8A
:200F6800BC4ECCE3FB2F0F0F100F10100F100F0F0F101210C8E582600302106490E6A0E0AD
:200F8800FF74014FF0021064121151E582600302106490E6A0E0FF74014FF002106412112A
:200FA800BDE582600302106490E6A0E0FF74014FF0021064120432E5826003021064121261
:200FC80069021064120466AF8290E740EFF090E68AE4F090E68B04F002106490E6BAE0F5A3
:200FE8008212046AE582707490E6A0E0FF74014FF0806990E6BCE0FF75140D75150075164E
:20100800408F82120436E582700B90E6A0E0FF74014FF0804790E740E50DF090E68AE4F06C
:2010280090E68B04F0803590E6BCE0FF90E6BAE0F5148F82120452E582702190E6A0E0FF6E
:2010480074014FF0801690E6B9E0F5821207B9E582700990E6A0E0FF74014FF090E6A0E067
:20106800FF74804FF022AF828F0653067FEE24F750030210C4EE240A83F582EE240D83F597
:2010880083E4739DA1B4C4B8C4BCC4C010101010101010101090E6A022EF30E7067EA27F89
:2010A800E680047EA17FE68E828F832290E6A32290E6A42290E6A52290E6A6229000002252
:2010C80090E6B8E0FFBF8002801FBF81028005BF826F803490E740E4F090E741F090E68ABD
:2010E800F090E68B7402F0805CE50F25E0FFE50E420790E740EFF090E741E4F090E68AF06F
:2011080090E68B7402F0803D90E6BCE0F58212106EAE82AF83EE4F7003F582228E828F83BD
:20112800E0FE30E0047F0180027F0090E740EFF090E741E4F090E68AF090E68B7402F0803B
:2011480004758200227582012290E6B8E0FF6005BF0255801190E6BAE0FFBF0105750F00DF
:20116800804F7582002290E6BAE0703890E6BCE0F58212106EAE82AF83E0FD5305FE8E8209
:201188008F83EDF090E6BCE0FF53070F90E6BCE05480C423541FFE90E6832FF0E0FF742015
:2011A8004FF0800D7582002290E6B9E0F5820207B97582012290E6B8E0FF6005BF026A80C3
:2011C8001B90E6BAE0FFBF0202806790E6BAE0FFBF0105750F01805A7582002290E6BAE0D7
:2011E800704390E6BCE0F58212106EAE82AF83EE4F7003F582228E828F83E0FD4305018E9A
:20120800828F83EDF090E6BCE0FF53070F90E6BCE05480C423541FFE90E6832FF0E0FF7432
:20122800204FF0800D7582002290E6B9E0F5820207B975820122AF82D20310AF02C203EFC4
:20124800600E75101C75113D75123675133D800C75103675113D75121C75133DA20392AFDA
:201268002290E6BBE0FFBF01028019BF02028029BF03028033BF0603021324BF0703021317
:20128800390213487E007F3D8F0690E6B3EEF07E007F3D90E6B4EEF022AF1190E6B3EFF0AE
:2012A800AE1090E6B4EEF0227D487E3D7F8090E6BAE0F5147B008B020BEAB5140280428D8F
:2012C800008E018F028D828E838FF01213DF28F8E439F9880589068A0774012DF9E43EFAA9
:2012E8008F0489828A838CF01213DFF9B9030280067D007E007F00ED4E6006C3E5149B50BC
:20130800B5ED4E600D8E0790E6B3EFF090E6B4EDF02290E6A0E0FF74014FF0227E127F3D8B
:201328008F0690E6B3EEF07E127F3D90E6B4EEF022AF1390E6B3EFF0AE1290E6B4EEF022DF
:0A13480090E6A0E0FF74014FF022D0
:2001C6007900E94400601B7A00901400780175923CE493F2A308B800020592D9F4DAF275AB
:0201E60092FF86
:011352003268
:1B13530020F71130F6138883A88220F509F6A8837583002280FEF280F5F02299
:01136E00324C
:01136F00324B
:01137000324A
:011371003249
:011372003248
:03004300023F0079
:203F00000203460002136E00020B530002040B0002036D000203BC00020B500002137C0041
:203F200002137D0002137E0002137F0002138200020A8A0002136F0002137000021372000B
:203F4000020A3C0002137C000213FB00020B5100020B5200020B5400020B5500020F4700A0
:203F60000213DE0002137C0002137C0002137C0002137B0002138000021383000213850044
:203F80000213810002138400021386000213DD000213730002137500021377000213790039
:183FA00002137400021376000213780002137A000213710002135200EC
:011373003247
:011374003246
:2001EE007800E84400600A790075923CE4F309D8FC7801E84400600C7901903C00E4F0A3A5
:04020E00D8FCD9FA45
:011375003245
:011376003244
:011377003243
:011378003242
:011379003241
:01137A003240
:01137B00323F
:01137C00323E
:01137D00323D
:01137E00323C
:01137F00323B
:01138000323A
:011381003239
:011382003238
:011383003237
:011384003236
:011385003235
:011386003234
:20138700AE82AF8390E600E05418C423541FFDB40100E433FD60067CB17D00801C90E600E0
:2013A700E05418C423541FFBBB01067A617B0180047AC27B028A048B058C148D1515147432
:1613C700FFB514021515E514451570F11EBEFF011FEE4F70E422BA
:0113DD0032DD
:0113DE0032DC
:0D01B90075814B1213FCE58260030201B654
:1C13DF0020F71430F6148883A88220F507E6A88375830022E280F7E49322E0221D
:0113FB0032BF
:0413FC0075820022D4
:00000001FF
